:020000040800F2
:1000000070410120ED0100088D1C0108B5D80008E1
:10001000C9190108E90F0008D59501080000000082
:10002000000000000000000000000000D13B0108BB
:100030005D2800080000000051250108BD410108AD
:10004000070200080702000807020008070200086C
:10005000070200080702000807020008070200085C
:10006000070200080702000807020008E52300084D
:10007000F52300080524000815240008252400089D
:10008000070200080702000807020008070200082C
:1000900049940108512E0008612E0008070200084B
:1000A000070200080702000807020008070200080C
:1000B00007020008070200080702000807020008FC
:1000C00007020008070200080702000807020008EC
:1000D000070200086D5D01087D5D01088D5D010866
:1000E00007020008070200080702000807020008CC
:1000F00007020008070200080702000807020008BC
:1001000007020008070200080702000807020008AB
:10011000054F0108154F01080702000807020008F3
:10012000070200080702000807020008070200088B
:10013000070200080702000807020008070200087B
:10014000070200080702000807020008070200086B
:10015000070200080702000807020008070200085B
:10016000070200080702000807020008070200084B
:1001700007020008070200088D4201080702000874
:10018000070200080702000807020008070200082B
:100190000702000800000000712E0008812E0008F0
:1001A000912E0008A12E000807020008070200088F
:1001B00007020008070200083524000807020008AB
:1001C00007020008070200080702000807020008EB
:1001D0000702000807020008DFF80CD000F036F92B
:1001E0000048004739A501087041012006488047B2
:1001F00006480047FEE7FEE7FEE7FEE7FEE7FEE70C
:10020000FEE7FEE7FEE7FEE779420108D9010008B4
:100210002DE9F05F0546002092469B46884606463B
:10022000814640241BE0284641464746224600F0CE
:100230009CF853465A46C01A914110D311461846AD
:10024000224600F083F82D1A67EB01084F4622463C
:100250000120002100F07AF817EB00094E41201E22
:10026000A4F10104DFDC484631462A464346BDE896
:10027000F09F40EA01039B0703D009E008C9121F61
:1002800008C0042AFAD203E011F8013B00F8013B50
:10029000521EF9D27047D2B201E000F8012B491E7C
:1002A000FBD270470022F6E710B513460A46044613
:1002B0001946FFF7F0FF204610BD30B5041E71F15E
:1002C000000404DB4FF00044404264EB0101141EC3
:1002D00073F1000405DB1C464FF00043524263EB10
:1002E0000403801A994101D3012030BD002030BDA4
:1002F00030B5041E71F1000404DB4FF000444042AD
:1003000064EB0101141E73F1000405DB1C464FF081
:100310000043524263EB0403101A8B4101D30120C6
:1003200030BD002030BD00F0004230F000400AD067
:10033000C10D01F56071C0F3160042EA0151C20817
:10034000400711437047002001467047202A04DB14
:10035000203A00FA02F1002070479140C2F12003D8
:1003600020FA03F3194390407047202A04DB203A17
:1003700021FA02F00021704721FA02F3D040C2F1C5
:10038000200291400843194670470029A8BF7047D2
:10039000401C490008BF20F00100704710B4B0FABB
:1003A00080FC00FA0CF050EA010404BF10BC704756
:1003B00049B1CCF1200421FA04F411FA0CF118BF70
:1003C000012121430843A3EB0C01CB1D4FEA00613F
:1003D0004FEA102042BF002010BC704700EBC35012
:1003E00010440029A4BF10BC7047401C490008BF3E
:1003F00020F0010010BC7047F0B400F0004221F082
:10040000004120F00040CE0DC30DC1F3160141F4B0
:100410000001C0F316004C42154640F40000761E61
:1004200009E010EB440002D582F0004240428842CD
:10043000F7D840005B1EB342F9DA18B1F0BC0021D6
:10044000FFF7ACBF2846F0BC704700001CB5094858
:100450000090094801900546009C06E0E06840F0E5
:10046000010394E8070098471034AC42F6D3FFF735
:10047000B7FE0000A4D20108C4D2010870B58C18E0
:1004800010F8015B15F0070301D110F8013B2A11A8
:1004900006D110F8012B03E010F8016B01F8016B95
:1004A0005B1EF9D12B0705D40023521E0DD401F891
:1004B000013BFAE710F8013BCB1A921C03E013F85A
:1004C000015B01F8015B521EF9D5A142D8D300208F
:1004D00070BD000085B08DED040A0390CDED020AD9
:1004E0008DED011ACDED001A9DED040A039890EDF3
:1004F000001A30EE410A9DED001A9DED012A21EE11
:10050000021AB4EE410AF1EE10FA17DDFFE7039884
:1005100090ED000AB5EE400AF1EE10FA0EDCFFE7AE
:100520009DED000A9DED012A039890ED001A20EE42
:10053000020A30EE010A80ED000A84E09DED040A13
:10054000039890ED001A30EE410A9DED001A9DEDE2
:10055000022A21EE021AB4EE410AF1EE10FA17DD7A
:10056000FFE7039890ED000AB5EE400AF1EE10FAAD
:100570000EDDFFE79DED000A9DED022A039890ED48
:10058000001A20EE020A30EE010A80ED000A59E05E
:100590009DED040A039890ED001A30EE410A9DED9E
:1005A000001A9DED022A21EE421AB4EE410AF1EE44
:1005B00010FA17DAFFE7039890ED000AB5EE400A4B
:1005C000F1EE10FA0EDCFFE79DED001A9DED022A18
:1005D000039890ED000A21EE021A30EE410A80EDF8
:1005E000000A2EE09DED040A039890ED001A30EE0B
:1005F000410A9DED001A9DED012A21EE421AB4EE4A
:10060000410AF1EE10FA17DAFFE7039890ED000ABD
:10061000B5EE400AF1EE10FA0EDDFFE79DED001A8F
:100620009DED012A039890ED000A21EE021A30EEAA
:10063000410A80ED000A03E0049803990860FFE78F
:10064000FFE7FFE7FFE705B07047000080B584B023
:10065000039041F20400CEF2000090ED000AB8EEE3
:10066000400A9FED161A80EE010ABCEEC00A10EE99
:10067000100A40F20401C2F200010191C1F8050024
:1006800044F6F851C2F200010020088044F6F65109
:10069000C2F2000101200870039940F28840C2F2C2
:1006A000000002902F22FFF7E4FD01990298D0F894
:1006B0000100C1F8010004B080BD00BF00002A4362
:1006C00080B58AB040F28841C2F20001D1F80E0034
:1006D000D1F81610049100EE100A44F6B050C2F2A0
:1006E000000090ED011A30EE410A10EE100AFFF7FB
:1006F0001AFE0246049805920A46059942EC101B20
:1007000052EC101B9FED2E0B53EC10CBDB0F63F361
:10071000DF7242EC101B8DED060BFFF704FE9DED22
:10072000061B41EC100B51EC110B53EC102BFFF797
:10073000DFFDE8BBFFE740F28841C2F20001D1F8DB
:100740001200D1F81A10009100EE100A44F6B050D1
:10075000C2F2000090ED021A30EE410A10EE100ACB
:10076000FFF7E1FD0246009801920A46019942EC2A
:10077000101B52EC101B9FED120B53EC10CBDB0F38
:1007800063F3DF7242EC101B8DED020BFFF7CBFD24
:100790009DED021B41EC100B51EC110B53EC102B97
:1007A000FFF7A6FD20B9FFE701208DF8270003E041
:1007B00000208DF82700FFE79DF827000AB080BDD4
:1007C000000000000000000080B58CB00B900020FD
:1007D0008DF82B00FFE79DF82B00042814DCFFE7C1
:1007E00040F25C00C2F2000000689DF82B2040F24D
:1007F000FC41C2F2000141F82200FFE79DF82B0006
:1008000001308DF82B00E6E7FFE702F0E5FE40F24D
:100810000401C2F200010220087040F25C00C2F242
:1008200000000068C1F8310045F2AD40C2F200009E
:100830000078632808DCFFE740F20401C2F20001FF
:10084000012081F8350007E040F20401C2F2000106
:10085000002081F83500FFE744F6B050C2F20000F6
:100860000390416840F20402C2F200020892C2F80A
:100870000D10C16881F00041C2F81510816881F047
:100880000041C2F811100169C2F8191090ED010A77
:100890009FED471A8DED041A20EE010A1BF056FC5D
:1008A00003989DED041A8DED020A40F25051C2F2F8
:1008B0000001059191ED0E0A8DED010A90ED010AFE
:1008C00020EE010A1BF042FB9DED013A03989DEDDD
:1008D000041A0599089AB0EE402A9DED020A91ED9E
:1008E0000F4A22EE042A20EE030A30EE020A10EE2E
:1008F000101AC2F8251090ED010A20EE010A1BF033
:1009000025FC03989DED041A05998DED070A91EDDC
:100910000F0A8DED060A90ED010A20EE010A1BF088
:1009200015FB05989DED062A0899B0EE401A9DED3D
:10093000070A90ED0E3A21EE031A20EE020A30EE7D
:10094000410A10EE100AC1F8290044F6E040C2F254
:10095000000090ED0F0A8DED090A40F28440C2F2CA
:10096000000001F04DFE0898B0EE401A9DED090A16
:1009700020EE010A10EE101AC0F82D1041F2040109
:10098000CEF2000191ED000AB8EE400A9FED091A7F
:1009900080EE010ABCEEC00A10EE101AC0F8091071
:1009A000422118F0BDFD012019F02AFE2DE700BFFD
:1009B00035FA8E3C00002A4380B541F20000C4F6AF
:1009C00000000821012206F08DFE80BD80B541F2B5
:1009D0000000C4F600000821002206F083FE80BD5E
:1009E00080B541F20000C4F600001021012206F09B
:1009F00079FE80BD80B541F20000C4F600001021F0
:100A0000002206F06FFE80BD80B584B00390FFF732
:100A1000DDFF922000F01EFA40F2EE41C2F200012A
:100A200002911220062200F0E1F9FFF7C5FF029BB8
:100A30001878597840EA012040F2EC41C2F20001F6
:100A40000880B1F9000000EE100AB8EEC00A40F2CA
:100A50005000C2F2000090ED001A20EE010A039A45
:100A600092ED081A20EE010A82ED000A9A7893F8B6
:100A700003C042EA0C220A80B1F9002000EE102ADD
:100A8000B8EEC00A90ED001A20EE010A039A92ED2A
:100A9000081A20EE010A82ED010A1A795B7942EA0E
:100AA00003220A80B1F9001000EE101AB8EEC00A55
:100AB00090ED001A20EE010A039890ED081A20EE3E
:100AC000010A80ED020AFFF795FF02990020082233
:100AD00000F08CF9FFF784FF029800780F2840F0AF
:100AE0009E80FFE740F22C40C2F200000078002810
:100AF00050D0FFE740F2EE43C2F200039878D97875
:100B000040EA012040F2EC41C2F200010880B1F954
:100B1000000000EE100AB8EEC00A40F25400C2F223
:100B2000000090ED002A039A92ED091A20EE020AC5
:100B300030EE410A82ED030A1A7993F805C042EAC1
:100B40000C220A80B1F9002000EE102AB8EEC00A8B
:100B500090ED002A039A92ED0A1A20EE020A30EE76
:100B6000410A82ED040A9A79DB7942EA03220A807B
:100B7000B1F9001000EE101AB8EEC00A90ED002A8C
:100B8000039890ED0B1A20EE020A30EE410A80ED38
:100B9000050A43E040F2EE43C2F200039878D978A8
:100BA00040EA012040F2EC41C2F200010880B1F9B4
:100BB000000000EE100AB8EEC00A40F25400C2F283
:100BC000000090ED001A20EE010A039A82ED030A5C
:100BD0001A7993F805C042EA0C220A80B1F9002084
:100BE00000EE102AB8EEC00A90ED001A20EE010ABD
:100BF000039A82ED040A9A79DB7942EA03220A8099
:100C0000B1F9001000EE101AB8EEC00A90ED001A0B
:100C100020EE010A039880ED050AFFE7FFE7FFF7E2
:100C2000D5FEA22000F016F940F2EE41C2F200011A
:100C300001912220022200F0D9F8FFF7BDFE0199B0
:100C400008784978C00040EA511140F2EC40C2F205
:100C500000000180B0F90000B0F5806F09DBFFE70C
:100C600040F2EC41C2F200010888A0F50060088063
:100C7000FFE740F2EC40C2F20000B0F9000000EEE5
:100C8000100AB8EEC00AB4EE001A20EE010AB3EE64
:100C9000071A30EE010A039880ED070A04B080BD00
:100CA00080B586B005908DF81310059840F2580174
:100CB000C2F20001086046F6DC61C2F20001029156
:100CC0000020087019F01CFA0299024608781043B7
:100CD000087019F0F3FA0299024608781043087078
:100CE00045F21400C2F2000003904FF60001C0F676
:100CF00007011422FFF7BDFA039890ED000AB7EE42
:100D0000001AB4EE410AF1EE10FA48D0FFE79DF860
:100D10001300012843D1FFE740F2B840C2F20000BF
:100D2000009000F051FF009945F21402C2F2000257
:100D300001924FF07E501060486A5060886A90605F
:100D4000C86AD060086B106191ED0C1A9FED260AFD
:100D500080EE010A81ED080A0020C4F2202088619B
:100D60007F2002F06DF90198026843684FF6000099
:100D7000C0F6070002F03EFB01988268C3684FF698
:100D80000800C0F6070002F035FB019802694369CC
:100D90004FF61000C0F6070002F02CFB1CE045F2F5
:100DA0001400C2F20000426840F2B841C2F20001F1
:100DB0004A6282688A62C268CA620069086391ED09
:100DC0000C1A9FED090A80EE010A81ED080A002045
:100DD000C4F220208861FFE746F6DC60C2F2000022
:100DE000007806B080BD00BFC3F51C4180B584B05B
:100DF0008DF80F0002918DF807209DF80F0040F04C
:100E0000800000F027F8FFE79DF8070070B1FFE7CA
:100E1000552000F01FF802990870029801300290E6
:100E20009DF8070001388DF80700EDE704B080BD9C
:100E300080B582B08DF8070000919DF8070040F062
:100E4000800000F007F8552000F004F800990870C1
:100E500002B080BD80B582B08DF8070040F2580026
:100E6000C2F2000000686A464FF47A7111600DF119
:100E700007010DF10602012309F08AFD9DF8060025
:100E800002B080BD80B582B08DF807008DF80610E5
:100E90009DF80700FFF7DEFF9DF80600FFF7DAFF79
:100EA00002B080BD83B0029001910092009890ED55
:100EB000004A90ED010A90ED026A90ED035A26EE89
:100EC000062AB6EE001A31EE422A25EE053A32EE37
:100ED000432A029824EE057A20EE063A33EE477A4A
:100EE000D0ED000AD0ED011A90ED023A27EE217AFA
:100EF00022EE202A32EE072A24EE064A20EE050AC8
:100F000030EE040A20EE030A30EE020A30EE000A48
:100F1000019880ED000A009890ED004A90ED016A7A
:100F200090ED022A90ED035A24EE053A26EE020ACD
:100F300030EE030A029826EE063A31EE433A25EEE9
:100F4000057A33EE477AD0ED000AD0ED011A90ED24
:100F5000023A27EE217A20EE200A30EE070A24EE2C
:100F6000064A22EE052A32EE442A22EE032A30EE09
:100F7000020A30EE000A019880ED010A009890ED17
:100F8000002A90ED014A90ED023A90ED030A22EE1C
:100F9000036A24EE005A35EE465A029822EE042ADD
:100FA00023EE000A30EE020A90ED006A90ED017A1D
:100FB00090ED022A20EE070A25EE065A30EE050AC9
:100FC00024EE044A31EE441A23EE033A31EE431A7A
:100FD00021EE021A30EE010A30EE000A019880ED8F
:100FE000020A03B070470000FFE7FEE780B582B059
:100FF00047F6B840C2F2000001900AF035F90198B6
:1010000000210AF09FFE02B080BD000081B08DF883
:1010100003009DF8030040F21851C2F2000108706D
:1010200001B0704783B08DF80B009DF80B000146AE
:101030000091152800F2C2810099DFE811F0160036
:101040001C002F00430057006B007F009300A70097
:10105000BB00CF00E300F7000B011F013301470184
:101060005B016F0183019701AB013220ADF80800ED
:1010700064200190A2E13220ADF80800BDF808100C
:101080004FF68060C0F62120B0FBF1F042F22D3126
:10109000C0F2FA01A0FB011001908FE13220ADF8FF
:1010A0000800BDF808104FF68060C0F62120B0FBA4
:1010B000F1F049F2C551C0F6EE51A0FB0110000954
:1010C00001907BE13220ADF80800BDF808104FF622
:1010D0008060C0F62120B0FBF1F048F2C701C0F6F5
:1010E0006941A0FB01100009019067E13220ADF8D1
:1010F0000800BDF808104FF68060C0F62120B0FB54
:10110000F1F048F20941C0F6BC31A0FB0110000922
:10111000019053E13220ADF80800BDF808104FF6F9
:101120008060C0F62120B0FBF1F04BF61541C0F213
:101130009C21A0FB0110800801903FE13220ADF816
:101140000800BDF808104FF68060C0F62120B0FB03
:10115000F1F042F29501C0F64F11A0FB0110000919
:1011600001902BE13220ADF80800BDF808104FF6D1
:101170008060C0F62120B0FBF1F049F69D71C0F609
:101180004A01A0FB01100009019017E13220ADF8DF
:101190000800BDF808104FF68060C0F62120B0FBB3
:1011A000F1F04EF6E941C0F2D471A0FB0110000944
:1011B000019003E13220ADF80800BDF808104FF6A9
:1011C0008060C0F62120B0FBF1F04AF63711C0F67E
:1011D000F451A0FB011040090190EFE03220ADF87E
:1011E0000800BDF808104FF68060C0F62120B0FB63
:1011F000F1F042F69111C0F23761A0FB0110000935
:101200000190DBE03220ADF80800BDF808104FF681
:101210008060C0F62120B0FBF1F048F20941C0F631
:10122000BC31A0FB011040090190C7E03220ADF8AD
:101230000800BDF808104FF68060C0F62120B0FB12
:10124000F1F04BF61541C0F29C21A0FB0110C00843
:101250000190B3E03220ADF80800BDF808104FF659
:101260008060C0F62120B0FBF1F042F29501C0F69B
:101270004F11A0FB0110400901909FE03220ADF812
:101280000800BDF808104FF68060C0F62120B0FBC2
:10129000F1F049F69D71C0F64A01A0FB011040092A
:1012A00001908BE03220ADF80800BDF808104FF631
:1012B0008060C0F62120B0FBF1F04EF6E941C0F2AB
:1012C000D471A0FB01104009019077E03220ADF805
:1012D0000800BDF808104FF68060C0F62120B0FB72
:1012E000F1F049F6D561C0F6F151A0FB011080097B
:1012F000019063E03220ADF80800BDF808104FF609
:101300008060C0F62120B0FBF1F042F69111C0F2EE
:101310003761A0FB0110400901904FE03220ADF889
:101320000800BDF808104FF68060C0F62120B0FB21
:10133000F1F04BF6EB21C1F27471A0FB0110C00972
:1013400001903BE03220ADF80800BDF808104FF6E0
:101350008060C0F62120B0FBF1F04BF61541C0F2E1
:101360009C21A0FB01100009019027E03220ADF87C
:101370000800BDF808104FF68060C0F62120B0FBD1
:10138000F1F042F29501C0F64F11A0FB0110800967
:10139000019013E03220ADF80800BDF808104FF6B8
:1013A0008060C0F62120B0FBF1F049F69D71C0F6D7
:1013B0004A01A0FB011080090190FFE7BDF8080079
:1013C000013847F6B841C2F2000109688862FFE7B8
:1013D0000198013847F6B841C2F200010A68D062AC
:1013E00001980138C860FFE70198400847F6B84106
:1013F000C2F200010968486303B0704780B547F640
:10140000B840C2F2000000210AF09CFC80BD000040
:1014100080B547F6B840C2F2000000210AF0DEFDB8
:1014200080BD000080B59CB01B90FFF7DFFDFFE79B
:1014300040F21850C2F200000078014618911228BC
:1014400000F25C821899DFE811F0130020008B0095
:10145000A700C300F40010015901590259025902B2
:101460005902590275019B01C101E7010D023302C6
:1014700000201790FFF7D6FD179840F21851C2F2DE
:1014800000010870FFF7C4FF38E2FFF7B7FF08203C
:10149000FFF7C8FDC820129019F0B2F8002016908E
:1014A000FFF7C0FD3220139019F0AAF8092011901F
:1014B000FFF7B8FD129819F0A3F81698FFF7B2FDE0
:1014C000139819F09DF80A20FFF7ACFD129819F057
:1014D00097F81698FFF7A6FD139819F091F8119850
:1014E000FFF7A0FD129819F08BF81698FFF79AFDF8
:1014F000139819F085F80C201490FFF793FD1298BB
:1015000019F07EF81698FFF78DFD139819F078F80A
:101510000E20FFF787FD129819F072F81698FFF762
:1015200081FD139819F06CF80D201590FFF77AFDE6
:101530004FF4FA7019F064F81498FFF773FDFA206D
:1015400019F05EF81598FFF76DFD40F2EE2019F0E6
:1015500057F8169840F21851C2F200010870CDE118
:10156000FFF74CFF0820FFF75DFDC820109019F031
:1015700047F80A20FFF756FD109819F041F80C20A3
:10158000FFF750FD109819F03BF840F21851C2F2E5
:10159000000100200870B1E1FFF730FF0C20FFF7D9
:1015A00041FDC8200F9019F02BF80A20FFF73AFDF3
:1015B0000F9819F025F80820FFF734FD0F9819F05F
:1015C0001FF840F21851C2F200010020087095E1A6
:1015D000FFF714FF0E200B90FFF724FD32200C9034
:1015E00019F00EF800200E90FFF71CFD96200D90CC
:1015F00019F006F80B98FFF715FD0C9819F000F894
:101600000E98FFF70FFD0D9818F0FAFF0B98FFF7F3
:1016100009FD0C9818F0F4FF0E98FFF703FD0D98E4
:1016200018F0EEFF0E9840F21851C2F20001087057
:1016300064E1FFF7E3FE0E20FFF7F4FCC8200A90F8
:1016400018F0DEFF0C20FFF7EDFC0A9818F0D8FF29
:101650000A20FFF7E7FC0A9818F0D2FF40F2185171
:10166000C2F200010020087048E1FFF7C7FE0A201F
:101670000690FFF7D7FCC820079018F0C1FF0020A4
:101680000990FFF7CFFC9620089018F0B9FF069854
:10169000FFF7C8FC079818F0B3FF0998FFF7C2FCE2
:1016A000089818F0ADFF0698FFF7BCFC079818F0F3
:1016B000A7FF0998FFF7B6FC089818F0A1FF069855
:1016C000FFF7B0FC079818F09BFF0998FFF7AAFCFA
:1016D000089818F095FF0698FFF7A4FC079818F0F3
:1016E0008FFF0998FFF79EFC089818F089FF09986A
:1016F00040F21851C2F200010870FFE0FFF77EFED1
:101700000C20FFF78FFCC82018F07AFF0D20FFF7A0
:1017100089FCFA2018F074FF0E20FFF783FC4FF4C9
:10172000967018F06DFF40F21851C2F200010020CF
:101730000870E3E0FFF762FE00208DF86B00FFE722
:101740009DF86B00022814DCFFE70C20FFF76AFC11
:101750006420059018F054FF0020FFF763FC059803
:1017600018F04EFFFFE79DF86B0001308DF86B001D
:10177000E6E740F21851C2F2000100200870BDE017
:10178000FFF73CFE00208DF86A00FFE79DF86A0035
:10179000032814DCFFE70C20FFF744FC64200490CE
:1017A00018F02EFF0020FFF73DFC049818F028FFEA
:1017B000FFE79DF86A0001308DF86A00E6E740F225
:1017C0001851C2F200010020087097E0FFF716FEE2
:1017D00000208DF86900FFE79DF86900042814DCFB
:1017E000FFE70C20FFF71EFC6420039018F008FFB1
:1017F0000020FFF717FC039818F002FFFFE79DF8A1
:10180000690001308DF86900E6E740F21851C2F234
:1018100000010020087071E0FFF7F0FD00208DF856
:101820006800FFE79DF86800052814DCFFE70C203E
:10183000FFF7F8FB6420029018F0E2FE0020FFF7AB
:10184000F1FB029818F0DCFEFFE79DF8680001301C
:101850008DF86800E6E740F21851C2F2000100205E
:1018600008704BE0FFF7CAFD00208DF86700FFE726
:101870009DF86700062814DCFFE70C20FFF7D2FB79
:101880006420019018F0BCFE0020FFF7CBFB01980C
:1018900018F0B6FEFFE79DF8670001308DF867008D
:1018A000E6E740F21851C2F200010020087025E07E
:1018B000FFF7A4FD00208DF86600FFE79DF86600A5
:1018C000072814DCFFE70C20FFF7ACFB6420009036
:1018D00018F096FE0020FFF7A5FB009818F090FE88
:1018E000FFE79DF8660001308DF86600E6E740F2FC
:1018F0001851C2F2000100200870FFE70A2018F01A
:101900007FFE95E580B58AB0099000200290039093
:1019100004900590012101910691079040F2FF701B
:101920000890099803A904F04DFC029B09986946A8
:101930000B600222114604F0A1FC0199029A099859
:1019400004F0ECFA0AB080BD80B584B047F228609C
:10195000C2F20000019005F007FB47F28C60C2F272
:101960000000029005F000FB47F2F060C2F20000B8
:10197000039005F0F9FA0198FFF7C4FF0298FFF70A
:10198000C1FF0398FFF7BEFF04B080BD80B58CB0E7
:101990000B90ADF82A100992BDF82A0000900020A3
:1019A0000190029008210391049005900690079001
:1019B00008900B98099A694604F0B6FB01280FD1EC
:1019C000FFE70B98099A694604F0AEFB012806D19F
:1019D000FFE70B98099A694604F0A6FBFFE7FFE7CB
:1019E0000CB080BD84B08DF80F000291ADF80620D8
:1019F0009DF80F000146009123281DD80099DFE8CB
:101A000001F012131415161B1B1B1B1B1B1B1B1B8E
:101A10001B1B1B1B1B1B1B1B1B1B1B1B1B1B1B1B16
:101A20001B1B1718191A08E007E006E005E004E0A0
:101A300003E002E001E000E0FFE7002004B07047AF
:101A40000020704780B582B046F6F460C2F2000014
:101A5000009046F2CC61C2F200010022019214F023
:101A6000CFFC009845F6CC61C2F2000114F0AEFC48
:101A7000019802B080BD000080B584B0039002914F
:101A8000039946F6F460C2F20000019014F09EFC47
:101A9000019814F045FC03980299096817F028FD95
:101AA000002004B080BD000083B0029001918DF849
:101AB000032000208DF802009DF9020003B070475A
:101AC00080B586B00490ADF80E1000208DF80D00A2
:101AD00046F6F460C2F20000D0F8BC020290029810
:101AE000D0F8140220B1FFE701208DF8170013E0B1
:101AF0000499BDF80E2046F6F460C2F20000019091
:101B000014F07EFC019814F069FD8DF80D009DF82D
:101B10000D008DF81700FFE79DF8170006B080BD97
:101B200080B547F2F060C2F2000044210022FFF7C6
:101B30002DFF0FF047F8FFF707FF80BD80B584B099
:101B40008DED030ACDED020A9DED020A9DED031A0B
:101B500030EE410ADFED180A1AF0A0FA8DED010A05
:101B60009DED010A9FED151AB4EE410AF1EE10FA4F
:101B700009DDFFE79DED010A9FED121A30EE010A23
:101B80008DED010A13E09DED010A9FED0D1AB4EEF3
:101B9000410AF1EE10FA09DAFFE79DED010A9FED27
:101BA000061A30EE010A8DED010AFFE7FFE79DED11
:101BB000010A04B080BD00BF0000B44300003443FC
:101BC000000034C30000B4C380B592B005A90291EF
:101BD0001190002010900F9000F052FD40F24850FC
:101BE000C2F2000080ED000AFFE700F049FD40F27C
:101BF0004850C2F2000090ED001A30EE410AB2EEF9
:101C0000041AB4EE410AF1EE10FA1ADDFFE7119959
:101C100043F6AC00C3F622304862119941F2B0603D
:101C2000C3F6CE1088621199C862119941F23F60E3
:101C3000C4F21B10086311990020C4F220208861AF
:101C4000F6E29FEDE40A00F0ADFC11990020086374
:101C500011994862119988621199C862ADF8120011
:101C6000FFE7BDF8120040F28201C2F200010988CC
:101C7000884280F2E781FFE7FEF7A8FE9220FFF797
:101C8000E9F812200FA901910622FFF7AFF8FEF73D
:101C900093FE9DF83C009DF83D1040EA0120ADF810
:101CA0003A00BDF93A0000EE100AB8EEC00A40F260
:101CB0005000C2F2000090ED001A20EE010A1199C6
:101CC00081ED000A9DF83E109DF83F2041EA022177
:101CD000ADF83A10BDF93A1000EE101AB8EEC00A8D
:101CE00090ED001A20EE010A119981ED010A9DF88C
:101CF00040109DF8412041EA0221ADF83A10BDF9AB
:101D00003A1000EE101AB8EEC00A90ED001A20EE5C
:101D1000010A119880ED020A119890ED001A90EDD9
:101D2000012A90ED020A22EE022A21EE011A31EE7A
:101D3000021A20EE000A30EE010A1AF0CFFA0298D9
:101D400080ED020A90ED021A119890ED0C0A30EE27
:101D5000010A80ED0C0AFEF74DFE019900200822D1
:101D6000FFF744F8FEF73CFE9DF83C000F285FD1DA
:101D7000FFE79DF83E009DF83F1040EA0120ADF8D6
:101D80003A00BDF93A0000EE100AB8EEC00A40F27F
:101D90005400C2F2000090ED001A20EE010A1199E1
:101DA00081ED030A119991ED031A91ED090A30EEC4
:101DB000010A81ED090A9DF840109DF8412041EA91
:101DC0000221ADF83A10BDF93A1000EE101AB8EE43
:101DD000C00A90ED001A20EE010A119981ED040A63
:101DE000119991ED041A91ED0A0A30EE010A81ED84
:101DF0000A0A9DF842109DF8432041EA0221ADF8FD
:101E00003A10BDF93A1000EE101AB8EEC00A90ED83
:101E1000001A20EE010A119880ED050A119890ED44
:101E2000051A90ED0B0A30EE010A80ED0B0AFFE770
:101E3000BDF8120038BBFFE7079806900798059099
:101E400000208DF81100FFE79DF81100022819DC31
:101E5000FFE711989DF8112000EB8200C0680BA9E4
:101E600041F8220011989DF8112000EB8200C06813
:101E700008A941F82200FFE79DF8110001308DF814
:101E80001100E1E764E0029890ED020A90ED011A7A
:101E9000B4EE410AF1EE10FA03DDFFE70798069071
:101EA000FFE7029890ED020A90ED001AB4EE410AA5
:101EB000F1EE10FA03DAFFE707980590FFE700203C
:101EC0008DF81000FFE79DF8100002283FDCFFE7C7
:101ED00011989DF8101000EB810090ED030A0BA8FB
:101EE00000EB810090ED001AB4EE410AF1EE10FA19
:101EF0000ADDFFE711989DF8102000EB8200C06812
:101F00000BA941F82200FFE711989DF8101000EB93
:101F1000810090ED030A08A800EB810090ED001A03
:101F2000B4EE410AF1EE10FA0ADAFFE711989DF8D3
:101F3000102000EB8200C06808A941F82200FFE7EA
:101F4000FFE79DF8100001308DF81000BBE7FFE7B8
:101F5000029890ED010A90ED001A30EE410A46F623
:101F6000E460C2F2000080ED000A00208DF80F004E
:101F7000FFE79DF80F0002281DDCFFE79DF80F101A
:101F80000BA800EB810090ED000A08A800EB81008F
:101F900090ED001A30EE410A46F6E860C2F2000009
:101FA00000EB810080ED000AFFE79DF80F00013093
:101FB0008DF80F00DDE746F6E460C2F2000090ED18
:101FC000000AB6EE001AB4EE410AF1EE10FA2DDC6A
:101FD00002E000BF0AD7A33B46F6E860C2F2000069
:101FE00090ED000A9FED981AB4EE410AF1EE10FA56
:101FF0001CDCFFE746F6E860C2F2000090ED010A43
:102000009FED911AB4EE410AF1EE10FA0EDCFFE7F3
:1020100046F6E860C2F2000090ED020A9FED8A1ACF
:10202000B4EE410AF1EE10FA01DDFFE70AE09FEDA0
:10203000870A00F0B7FAFFE7BDF812000130ADF8EB
:1020400012000EE640F28200C2F20000008800EEAC
:10205000100AB8EE401A119890ED0C0A80EE010AB1
:1020600080ED0C0A00208DF80E00FFE79DF80E00B1
:1020700002281BDCFFE740F28200C2F20000008869
:1020800000EE100AB8EE401A11989DF80E1000EB01
:10209000810090ED090A80EE010A80ED090AFFE750
:1020A0009DF80E0001308DF80E00DFE7FEF78EFC84
:1020B000A220FEF7CFFE22200FA90222FEF796FEF5
:1020C000FEF77AFC9DF83C009DF83D10C00040EA08
:1020D0005110ADF83A00BDF93A00B0F5806F07DB5A
:1020E000FFE7BDF83A00A0F50060ADF83A00FFE761
:1020F000BDF93A0000EE100AB8EEC00AB4EE001ABC
:1021000020EE010AB3EE071A30EE010A119880EDB5
:10211000060A46F6D061C2F2000108880130088044
:10212000FFE746F6E460C2F2000090ED000A0120ED
:10213000B6EE001AB4EE410AF1EE10FA009071DC2E
:10214000FFE7119890ED0C0A9FED411A30EE010A5D
:10215000B0EEC00A0120B6EE001AB4EE410AF1EE6C
:1021600010FA00905EDCFFE746F6E860C2F200007D
:1021700090ED000A01209FED341AB4EE410AF1EE11
:1021800010FA00904EDCFFE746F6E860C2F200006D
:1021900090ED010A01209FED2C1AB4EE410AF1EEF8
:1021A00010FA00903EDCFFE746F6E860C2F200005D
:1021B00090ED020A01209FED241AB4EE410AF1EEDF
:1021C00010FA00902EDCFFE7119890ED090AB0EEAE
:1021D000C00A01209FED1F1AB4EE410AF1EE10FA79
:1021E00000901FDCFFE7119890ED0A0AB0EEC00ADC
:1021F00001209FED181AB4EE410AF1EE10FA00909A
:1022000010DCFFE7119890ED0B0AB0EEC00A9FEDCD
:10221000111A0020B4EE410AF1EE10FAC8BF0120F5
:102220000090FFE70098C00700287FF4DEACFFE7CE
:10223000119890ED0C1A9FED080A80EE010A80EDCE
:10224000080A12B080BD00BF9A99193E6F12033A76
:10225000CDCC1CC10AD7233CC3F51C4180B582B04C
:102260000190642018F0CCF9FFE745F2A430C2F2E7
:10227000000090F8400003281BD1FFE7FEF720FA8A
:10228000B8B1FFE741F20400CEF2000090ED000A81
:10229000B8EE400A9FED1A1A80EE010ABCEEC00AA1
:1022A00010EE100A40F24601C2F20001C1F801002E
:1022B000FFE745F25050C2F200000078022808D033
:1022C000FFE745F25050C2F20000007801280CD11F
:1022D000FFE745F66000C2F20000006840F24601E8
:1022E000C2F20001C1F80500FFE740F24600C2F269
:1022F0000000092117F014F9012018F081F9B4E762
:1023000000002A4380B582B00190FFE701F00EFB88
:102310000520009018F074F901F05AFB009818F0AD
:102320006FF9F3E745F2A431C2F2000191ED030A1F
:1023300091ED0A1A9FED262A21EE021A9FED253A09
:1023400020EE030A30EE010A81ED030A91ED040A42
:1023500091ED0B1A21EE021A20EE030A30EE010A6B
:1023600081ED040A91ED050A91ED0C1A9FED1A3AE0
:1023700021EE031A9FED193A20EE030A30EE010A0E
:1023800081ED050A91ED060A91ED0D1A9FED143AC3
:1023900021EE031A20EE020A30EE010A81ED060A50
:1023A00091ED070A91ED0E1A21EE031A20EE020AB2
:1023B00030EE010A81ED070AC86888620869C862C0
:1023C0004869086388694863C8698863704700BFC3
:1023D0009A99193FCDCCCC3ED0CCCC3D6666663FB9
:1023E000CCCCCC3E80B547F26820C2F2000003F0AE
:1023F0009DFB80BD80B547F22830C2F2000003F09B
:1024000095FB80BD80B547F2E830C2F2000003F0D2
:102410008DFB80BD80B547F2A840C2F2000003F0FA
:1024200085FB80BD80B547F26850C2F2000003F022
:102430007DFB80BD80B547F22830C2F2000003F07A
:102440007BFA80BD84B003900398006840F2074196
:10245000C4F20201884206D8FFE740F60000C4F249
:102460000200009005E040F62000C4F20200009057
:10247000FFE7009802900398007808384CF6CD41A9
:10248000CCF6CC41A0FB0110000901900298039901
:102490004A6C22F0030210448864039940F68000DD
:1024A000C4F20200C864019800F01F0101208840B6
:1024B0000399086504B0704782B0019001980079D3
:1024C0000090009940F6FC00C4F2020000EB81008D
:1024D00001994865019940F64010C4F202008865F0
:1024E0000098013800F01F01012088400199C8655B
:1024F00002B0704784B00390029101920093039858
:10250000C16C006D48600398406D28B1FFE70398E7
:10251000816DC06D4860FFE70398016C406C00F06E
:102520001F020120904048600098039909684860A4
:1025300003988068102809D1FFE70198039909687A
:102540008860029803990968C86008E002980399B6
:1025500009688860019803990968C860FFE704B0BA
:102560007047000081B041F20400CEF20000006824
:102570000090009840F24051C2F200010968884280
:1025800008D2FFE740F24451C2F20001086801306E
:102590000860FFE7009840F24051C2F20001086075
:1025A00001B0704783B08DED020A41F20400CEF213
:1025B00000000068019002980090FFE741F20400DB
:1025C000CEF2000000680199401A00EE100AB8EE41
:1025D000400A9DED001A40F22C50C2F2000090ED2E
:1025E000002AB8EE422A21EE021AB4EE410AF1EEB8
:1025F00010FA01DAFFE7E1E703B0704700000000DE
:1026000080B584B0039041F20400CEF2000000686F
:102610000290029803990968401A00EE100AB8EE79
:10262000400A40F22C50C2F2000090ED001AB8EEC1
:10263000411A80EE010A8DED010A029803990860A3
:10264000FFF790FF0198FDF76EFE41EC100B9FED38
:102650000A1B53EC112B51EC100BFDF72EFE30B979
:10266000FFE74DF20A70C3F623400190FFE79DEDAE
:10267000010A04B080BD00BF7B14AE47E17A843FFD
:1026800080B582B000F06CF845F60C00C2F2000094
:1026900090ED000AB8EE401A818800EE101AB8EEEC
:1026A000C00A9FED0B2A20EE020A30EE011AC08804
:1026B00000EE100AB8EEC00A9FED062A20EE020ACC
:1026C00030EE010A8DED010A9DED010A02B080BDD8
:1026D0006F12833ABD37863581B000904EF6FC51BB
:1026E000CEF20001086840F08070086041F20401F9
:1026F000CEF200010020086041F20002CEF200029A
:10270000116841F001011160009944F24022C0F2C9
:102710000F024A4340F22C51C2F200010A600A68DB
:1027200044F6D353C1F26203A2FB0332920940F292
:102730003053C2F200031A6009684DF68362C4F296
:102740001B32A1FB0221890C40F23452C2F200027A
:10275000116040F24451C2F20001086001B07047BC
:10276000B0B586B041F20400CEF2000000680590DA
:10277000FFF7F8FE40F24450C2F2000001680598ED
:10278000002302934FF0FF3C1A46E1FB0C0240F29B
:102790003851C2F2000100914A6008600868496837
:1027A00040F22C54C2F200042268FDF731FD029B76
:1027B00002468C46009944F65000C2F20000C0F870
:1027C00004C00260D1F800C04968D0F800E0426857
:1027D0002468AEFB04E502FB0452BCEB0E0C61EB7B
:1027E000020244F65801C2F200010391C1F800C090
:1027F0004A60006845F60C02C2F2000204921060C2
:102800000868496840F23052C2F200020192126830
:10281000FDF7FEFCDDF804C0029B049A0146039814
:102820009180016840689288DCF800C002FB0CF2DD
:102830008A1A60F1000044F66001C2F200010A60E9
:1028400048600868496840F23452C2F200021268D7
:10285000FDF7DEFC0499C88006B0B0BD70470000EB
:1028600083B0029001910092009890ED004A90EDA3
:10287000012A90ED026A90ED035A26EE060AB6EEA2
:10288000001A31EE400A25EE053A30EE437A0298FE
:1028900024EE053A22EE060A30EE030AD0ED000AD5
:1028A000D0ED011A90ED023A20EE210A27EE207AAF
:1028B00030EE070A24EE064A22EE052A32EE442ABA
:1028C00022EE032A30EE020A30EE000A019880ED73
:1028D000000A009890ED004A90ED016A90ED020A1E
:1028E00090ED035A24EE053A26EE002A32EE432AF2
:1028F000029826EE063A31EE433A25EE057A33EE9B
:10290000477AD0ED000AD0ED011A90ED023A27EE99
:10291000217A22EE202A32EE072A24EE064A20EE01
:10292000050A30EE040A20EE030A30EE020A30EE09
:10293000000A019880ED010A009890ED005A90ED90
:10294000014A90ED023A90ED032A25EE036A24EE47
:10295000020A30EE060A029825EE045A23EE022AF5
:1029600032EE455A90ED006A90ED017A90ED022A20
:1029700025EE075A20EE060A30EE050A24EE044A38
:1029800031EE441A23EE033A31EE431A21EE021AD5
:1029900030EE010A30EE000A019880ED020A03B021
:1029A0007047000080B586B00590FFE745F25D30C6
:1029B000C2F200004188013141804088B0F5FA7FC1
:1029C00007DBFFE745F25D31C2F20001002008702D
:1029D000FFE745F25D30C2F20000408840F6B831B2
:1029E000884208DBFFE745F25D31C2F2000140F6A4
:1029F000B8304880FFE745F25D30C2F20000007851
:102A0000D0B9FFE710F00CFE45F25D31C2F20001D3
:102A1000039100200490A1F83B00C1F83700C1F8F1
:102A20003300C1F82F00C1F82B00C1F82700C1F80E
:102A30002300C1F81F00FFE740F2F840C2F2000097
:102A40000088B0F5FA7F0EDBFFE744F6BC31C2F236
:102A500000010020087040F2F841C2F200014FF47A
:102A6000FA700880FFE744F6F850C2F200000188CF
:102A7000013101800088B0F5FA7F07DBFFE744F6FB
:102A8000F651C2F2000100200870FFE744F6F6504C
:102A9000C2F20000007890B9FFE744F6F850C2F2A5
:102AA0000000008840F2DC51884208DBFFE744F672
:102AB000F851C2F200014FF4FA700880FFE740F2CB
:102AC0001A50C2F2000001880131018040F21C520C
:102AD000C2F2000211880131118040F21E52C2F28E
:102AE00000021188013111800088652813DBFFE79F
:102AF0000EF03CF847F22860C2F20000029004F0A9
:102B000033FA0298FEF7FEFE40F21A51C2F20001BB
:102B100000200880FFE740F21C50C2F2000000884D
:102B2000652813DBFFE70EF04DF847F28C60C2F228
:102B30000000019004F018FA0198FEF7E3FE40F25D
:102B40001C51C2F2000100200880FFE740F21E5035
:102B5000C2F200000088652813DBFFE70EF05EF884
:102B600047F2F060C2F20000009004F0FDF9009816
:102B7000FEF7C8FE40F21E51C2F20001002008809C
:102B8000FFE744F64060C2F20000C18D0131C1850B
:102B9000C08D642808DBFFE744F64061C2F2000103
:102BA000002081F83000FFE744F64060C2F20000E8
:102BB000C08D6F2807DBFFE744F64061C2F20001D9
:102BC0006420C885FFE744F64060C2F20000B0F818
:102BD00062100131A0F86210B0F86200642808DBCE
:102BE000FFE744F64061C2F20001002081F8640072
:102BF000FFE744F64060C2F20000B0F862006F28C0
:102C000008DBFFE744F64061C2F200016420A1F84E
:102C10006200FFE744F64060C2F20000B0F8961090
:102C20000131A0F89610B0F89600642808DBFFE7A1
:102C300044F64061C2F20001002081F89800FFE7ED
:102C400044F64060C2F20000B0F896006F2808DB3E
:102C5000FFE744F64061C2F200016420A1F896004B
:102C6000FFE744F64060C2F20000B0F8CA1001313C
:102C7000A0F8CA10B0F8CA00642808DBFFE744F6E1
:102C80004061C2F20001002081F8CC00FFE744F669
:102C90004060C2F20000B0F8CA006F2808DBFFE70E
:102CA00044F64061C2F200016420A1F8CA00FFE7C7
:102CB00044F64060C2F20000B0F866110131A0F89D
:102CC0006611B0F86601642808DBFFE744F640614E
:102CD000C2F20001002081F86801FFE744F640607D
:102CE000C2F20000B0F866016F2808DBFFE744F687
:102CF0004061C2F200016420A1F86601FFE744F6DA
:102D00004060C2F20000B0F89A110131A0F89A11A7
:102D1000B0F89A01642808DBFFE744F64061C2F28C
:102D20000001002081F89C01FFE744F64060C2F2F8
:102D30000000B0F89A016F2808DBFFE744F6406115
:102D4000C2F200016420A1F89A01FFE744F6406056
:102D5000C2F20000B0F832110131A0F83211B0F81F
:102D60003201642808DBFFE744F64061C2F200014B
:102D7000002081F83401FFE744F64060C2F2000011
:102D8000B0F832016F2808DBFFE744F64061C2F279
:102D900000016420A1F83201FFE744F64060C2F26E
:102DA0000000B0F8CE110131A0F8CE11B0F8CE017C
:102DB000642808DBFFE744F64061C2F2000100200E
:102DC00081F8D001FFE744F64060C2F20000B0F89D
:102DD000CE016F2808DBFFE744F64061C2F2000134
:102DE0006420A1F8CE01FFE744F64060C2F2000083
:102DF000B0F8FE100131A0F8FE10B0F8FE00642813
:102E000008DBFFE744F64061C2F20001002081F8D0
:102E10000001FFE744F64060C2F20000B0F8FE0097
:102E20006F2808DBFFE744F64061C2F2000164202E
:102E3000A1F8FE00FFE7012017F0E2FBB6E5000075
:102E400081B0EFF3108072B60090FFE7FEE700005C
:102E500080B547F22860C2F2000003F069FB80BD34
:102E600080B547F22860C2F2000003F061FB80BD2C
:102E700080B547F28C60C2F2000003F059FB80BDC0
:102E800080B547F28C60C2F2000003F051FB80BDB8
:102E900080B547F2F060C2F2000003F049FB80BD4C
:102EA00080B547F2F060C2F2000003F041FB80BD44
:102EB00083B002904AF20040C4F2000000900298F1
:102EC000006846F60001C4F20001884205D1FFE720
:102ED000009800F554700090FFE70298006846F6ED
:102EE0000041C4F20001884205D1FFE7009800F5D7
:102EF000D4600090FFE70098029908640298006887
:102F0000D0F8800020F4F810029A1168526B40EA61
:102F10000240C1F88000009870300299486402981D
:102F20000068D0F8800020F07060029A1168926BFF
:102F300040EA0260C1F880000098B03002998864CD
:102F4000009800F5C4700299C864009800F51870E4
:102F500002990865009800F51E700299486500986E
:102F60000190FFE70198009901F55471884208D259
:102F7000FFE7019900200860FFE701980430019005
:102F8000F0E703B07047000088B007900691059203
:102F900004930698406848B9FFE70698016882687C
:102FA0000069104340EA8140039009E006980168F7
:102FB000826800691043084340F080400390FFE7B7
:102FC0000698D0F820C0C16842698369C06940EAA8
:102FD0000C601843104340EA014002900798406D8E
:102FE000049901EBC10100EBC10001900398019924
:102FF00008600198043001900298019908600198D6
:103000000430019000200090FFE700980699CA68FC
:103010004CF21871C0F60101895C88420DD2FFE7BD
:103020000598009940580199086001980430019072
:10303000FFE7009804300090E7E708B07047000011
:1030400080B588B08DF81F0004F054F9FFE742F214
:103050001001C4F202014FF400400860FFE70020B5
:1030600002900390022104919DF81F100591012107
:1030700006918DF80700FFE79DF807001D280EDC7C
:10308000FFE703A802A903F0B3FF08B9FFE706E0D2
:10309000FFE79DF8070001308DF80700ECE704F02A
:1030A0007BF808B080BD000081B040F23040C2F231
:1030B0000000007F8DF803009DF80300012805D073
:1030C000FFE79DF8030003281FD1FFE742F200014C
:1030D000C4F20201086820F400700860FFE742F2C1
:1030E0000001C4F20201086840F40060086008684A
:1030F00020F400600860FFE742F20001C4F2020120
:10310000086840F400700860FFE79DF8030002289B
:1031100005D0FFE79DF80300032817D1FFE7FFE77D
:1031200042F20001C4F20201086840F480500860D5
:10313000086820F480500860FFE742F20001C4F202
:103140000201086840F480600860FFE740F2304107
:10315000C2F200010020087701B0704781B00090F2
:1031600042F22000C4F202000068400200281ED58E
:10317000FFE79DF80000C00748B1FFE742F21401E5
:10318000C4F20201086840F004000860FFE79DF8FF
:1031900000008007002809D5FFE742F21401C4F2BD
:1031A0000201086840F400400860FFE709E042F2CD
:1031B0001401C4F20201086848F2040210430860D6
:1031C000FFE742F21401C4F20201086840F48030C3
:1031D000086001B07047000082B00190009142F297
:1031E0002000C4F2020000684002002809D4FFE772
:1031F00042F21401C4F20201086820F40060086081
:1032000017E09DF80000C00748B1FFE742F2140143
:10321000C4F20201086820F40060086008E042F28D
:103220001401C4F20201086840F400600860FFE77E
:10323000FFE742F21401C4F20201086820F47E7034
:103240009DF8042040EAC2000860086840F00200CF
:103250000860086840F48030086002B070470000E1
:1032600084B003900193009242F21401C4F202016F
:10327000086840F001000860009803990860BFF3F7
:103280006F8F01980399486004B0704789B005902A
:10329000049140208DF80F00059802900498019049
:1032A00042F21401C4F20201086840F48020086070
:1032B000EFF31080069006980090EFF3108072B63E
:1032C0000790FFE7019800680299086002980430AF
:1032D00002900198043001909DF80F0001388DF89C
:1032E0000F00FFE79DF80F000028EBD1FFE70098E3
:1032F0000890089880F3108809B0704780B584B0B2
:10330000029004F005FA0190FFE742F21000C4F2C7
:1033100002000068C00300280DD5FFE704F0F8F9AB
:103320000199401A0299884204D9FFE703208DF8D9
:103330000F005AE0E9E742F21000C4F20200006810
:103340004CF2FA3108400090009860B3FFE7009A11
:1033500040F23041C2F20001486810434860FFE784
:103360009DF8030010F0F00F0BD0FFE7009800F07D
:10337000704242F21801C4F202010868104308606A
:10338000FFE70098000148B1FFE7009820F0704087
:1033900042F21001C4F202010860FFE7FFE70120DA
:1033A0008DF80F0021E0012050B9FFE742F218002C
:1033B000C4F20200006800F00100012808D010E00B
:1033C00042F21000C4F202000068C00748B1FFE7F3
:1033D000FFE742F21001C4F2020101200860FFE79A
:1033E000FFE700208DF80F00FFE79DF80F0004B005
:1033F00080BD000080B586B005900393029203F073
:1034000079FFFFE742F21001C4F202014FF40040DD
:103410000860FFE7FFE742F21001C4F202014FF437
:1034200080300860FFE700208DF80700FFE79DF877
:1034300007001D2810DCFFE70599029A039B002076
:1034400003F0C2FE08B9FFE706E0FFE79DF80700BA
:1034500001308DF80700EAE703F09EFE06B080BD5C
:1034600080B586B046F6E060C2F20000006840F227
:103470000401C2F20001D1F8361088423DD0FFE7C6
:1034800045F25050C2F200000078012808D0FFE752
:1034900045F25050C2F20000007802282DD1FFE71B
:1034A00045F25050C2F2000090ED210A90ED341A1E
:1034B00030EE410A10EE100AFCF735FF41EC100B1C
:1034C0009FED3F1B50EC111BC20F51EC100B62F330
:1034D000DF7141EC100B51EC100B9FED3B0B53ECEB
:1034E000102BFCF7EAFE38B9FFE745F60801C2F2F7
:1034F000000101200870FFE7FFE745F60800C2F26F
:1035000000000078002859D0FFE745F25051C2F280
:103510000001886EC96E0191FCF705FF0246019813
:1035200002920A46029942EC101B9FED251B51ECBA
:10353000112BCB0F039352EC101B63F3DF7242ECA1
:10354000101B8DED040BFCF7EEFE039A9DED041BA2
:1035500041EC100B51EC100B62F3DF7141EC100BDE
:1035600051EC110B53EC102BFCF7C2FE30BBFFE704
:1035700040F20400C2F20000D0F8360046F6E061E6
:10358000C2F20001086041F20400CEF2000090EDAA
:10359000000AB8EE400A9FED0E1A80EE010ABCEE5A
:1035A000C00A45F66000C2F2000080ED000A45F650
:1035B0000801C2F2000100200870FFE706B080BDDC
:1035C0000000000000000000000000000064B9409E
:1035D00000002A430000000080B584B002A80090DB
:1035E00045F2A640C2F20000D0F8030000EE100A37
:1035F00040F21050C2F2000090ED001AB4EE410A01
:10360000F1EE10FA7CD0FFE745F2A640C2F20000CE
:10361000D0F8030000EE100AB2EE001AB4EE410A30
:10362000F1EE10FA6CDDFFE745F2A640C2F20000B1
:10363000D0F80300FCF777FE41EC100B9FED381B30
:1036400053EC112B51EC100BFCF752FE002857D114
:10365000FFE704208DF80F00FFE79DF80F00012819
:1036600013DBFFE79DF80F2040F2FC41C2F200019E
:1036700001EB820050F8040C41F82200FFE79DF8AE
:103680000F0001388DF80F00E7E745F2A640C2F2BF
:103690000000D0F8030040F2FC41C2F200010860D3
:1036A000002002908DF80700FFE79DF8070004282E
:1036B00018DCFFE700989DF8072040F2FC41C2F2B9
:1036C000000101EB820191ED001A90ED000A30EE4D
:1036D000010A80ED000AFFE79DF8070001308DF830
:1036E0000700E2E7009890ED000AB1EE041A80EEC0
:1036F000010A40F25C00C2F2000080ED000AFFE720
:1037000045F2A640C2F20000D0F8030040F210518A
:10371000C2F20001086004B080BD00BF00BF00BF5E
:10372000000000000000394080B584B047F290509E
:10373000C1F6FF700068039047F29450C1F6FF7025
:103740000068029047F29850C1F6FF70006801903F
:103750000199039808440390039888B1FFE7039800
:1037600040F23C31C2F200010091023108220BF01C
:103770008FFF00990298123104220BF089FFFFE7B6
:1037800004B080BD80B584B003908DED020A03982B
:103790002030FEF735FF8DED010A039890ED040A05
:1037A00090ED051A30EE410A9DED011A80EE010AF6
:1037B0009FED121A20EE010A9FED111A80EE010A08
:1037C00080ED060A9DED020A0398B7EE001A31EE6D
:1037D000401A90ED062A90ED073A21EE031A20EEEA
:1037E000020A30EE010A80ED060A03998869C86171
:1037F00003990869486104B080BD00BF00007042B1
:103800000000B44380B582B0019040F2F841C2F2AA
:1038100000010020088044F6BC31C2F20001012002
:103820000870019908684A6844F67201C2F2000102
:103830004A60086045F29840C2F200004089498819
:1038400088420BD0FFE744F67200C2F200004088C5
:1038500045F29841C2F200014881FFE744F6720048
:10386000C2F20000018845F2AD42C2F200021181AD
:1038700001791170C08800EE100AB8EEC00A9FED01
:10388000081A80EE010A10EE100A45F2A641C2F2B3
:103890000001C1F8030010F063FC02B080BD00BF5E
:1038A0000000C84281B0009040F2F841C2F200012D
:1038B0000020088044F6BC31C2F2000101200870EB
:1038C000009A118944F66800C2F200000181116873
:1038D000526842600160017845F2A432C2F20002EF
:1038E00082F86910B0F9021000EE101AB8EEC00AA2
:1038F0009FED0D1A80EE010A40F25051C2F2000114
:1039000081ED0E0AB0F9042000EE102AB8EEC00ACC
:1039100080EE010A81ED0F0A807945F2AD41C2F2D5
:103920000001C88001B070470000C84280B545F270
:103930005D30C2F20000D0F8091000EE101A9FEDC1
:10394000231A20EE010ABDEEC00A10EE101A45F24D
:103950009A32C2F200025170D0F80D1000EE101A27
:1039600020EE010ABDEEC00A10EE101A9170D0F8D8
:10397000111000EE101A20EE010ABDEEC00A10EE82
:10398000101AD170D0F8151000EE101A20EE010AAE
:10399000BDEEC00A10EE101A1171D0F8191000EE29
:1039A000101A20EE010ABDEEC00A10EE101A517175
:1039B00001781170417F9171807FD07147F2F06082
:1039C000C2F200005021FDF7E1FF80BD0000FE4281
:1039D00080B584B044F67A01C2F200010291002061
:1039E00008814860086045F2A430C2F200000190EE
:1039F00090ED0F0A9FED521A20EE010ABDEEC00AAB
:103A000010EE100A088044F6B050C2F20000039095
:103A100090ED090A20EE010ABDEEC00A10EE100A70
:103A20004880FCF74DFE0199029A84460398137969
:103A30000CF0010C03F0FE036344137191F841C0D4
:103A400013790CF0070C03F0F10343EA4C031371F4
:103A500091F84030117903F0030301F0CF0141EAFE
:103A60000311117144F64061C2F20001D1F85C31DA
:103A700000EE103AB1EE0C2A20EE020AB3EE0F1A55
:103A800080EE010ABDEEC00A10EE10CA53790CF0A8
:103A9000070C03F0F80363445371D1F8901100EE62
:103AA000101A20EE020A80EE010ABDEEC00A10EEE6
:103AB000103A517903F0070301F0C70141EAC3014D
:103AC000517190ED020ABDEEC00A10EE101A907905
:103AD00001F03F0100F0C0000844907140F2040082
:103AE000C2F20000D0F83A1000EE101AB2EE041A3A
:103AF00020EE010ABDEEC00A10EE103AD17903F0B3
:103B00007F0301F080011944D171D0F83E0000EE2E
:103B1000100A20EE010ABDEEC00A10EE101A107A4B
:103B200001F07F0100F080000844107247F2F0605D
:103B3000C2F200005221FDF729FF04B080BD00BF92
:103B40000000C84280B59AB0199044F6A000C2F2B5
:103B500000001190B830B2EE040A9FEDE01A8DED2E
:103B6000101A9FEDDF2A8DED142ADFEDDE2ACDED50
:103B7000152AF0EE420AF0EE421A0EF0E7FB9DED38
:103B8000100A11989DED141A00F58270F0EE080AE3
:103B9000DFEDD51A9FEDD52A8DED122ADFEDD42A5F
:103BA000CDED162A0EF0D2FB11989DED142A20308F
:103BB000B3EE090AB3EE0E1ADFEDCE2AF0EE420A9A
:103BC000F0EE421A0EF0C2FB11989DED141ADDEDD5
:103BD000162A6C309FEDC80AF7EE000ACDED130AE5
:103BE000DFEDC61A9FEDC62A0EF0B0FB11989DEDD1
:103BF000142A00F5A870B1EE040ADFEDC22AF0EE37
:103C0000420AB0EE621AF0EE421A0EF09FFB1198D3
:103C10009DED120ADDED130A9DED141ADDED151A66
:103C2000DDED162A00F5CE709FEDB72A0EF08EFB63
:103C30000020ADF86200FFE7BDF86200B0F5806FCC
:103C40001BDAFFE7BDF862C040F62C03C2F20003A6
:103C500003EBCC0142F20002C0F6070202EBCC00FB
:103C600052F83C2043F83C2040684860FFE7BDF82C
:103C700062000130ADF86200DEE70020ADF86000C0
:103C8000FFE7BDF86000B0F5806F1FDAFFE7BDF811
:103C900060C040F62C00C2F2000000EBCC0303F53C
:103CA000005144F20002C0F6070202EBCC0052F8C9
:103CB0003C204FF4005C43F80C2040684860FFE76C
:103CC000BDF860000130ADF86000DAE7FFE745F2CB
:103CD000A430C2F2000090F8401044F6A000C2F2F6
:103CE0000000017044F64061C2F20001D1F8D81022
:103CF00000EE101A9FED851A30EE010A80ED040ADD
:103D000090ED040A9FED821AB4EE410AF1EE10FA2A
:103D10000DDBFFE744F6A000C2F2000090ED041AAC
:103D20009FED7C0A30EE410A80ED040AFFE744F67D
:103D3000A000C2F2000090ED040A9FED771AB4EEE5
:103D4000410AF1EE10FA0DDCFFE744F6A000C2F2E2
:103D5000000090ED040A9FED6F1A30EE010A80ED2D
:103D6000040AFFE744F6A000C2F20000016945F230
:103D7000A432C2F20002D16344F6B051C2F2000193
:103D800091ED010A40F28841C2F20001D1F80A1017
:103D900001EE101A30EE410A80ED050A90ED050A99
:103DA0009FED5B1AB4EE410AF1EE10FA0DDDFFE76C
:103DB00044F6A000C2F2000090ED050A9FED571AEC
:103DC00030EE010A80ED050A1BE044F6A000C2F2C5
:103DD000000090ED050A9FED501AB4EE410AF1EE95
:103DE00010FA0DDAFFE744F6A000C2F2000090EDF1
:103DF000050A9FED481A30EE010A80ED050AFFE73B
:103E0000FFE745F2A430C2F2000090F8400003281A
:103E100023D1FFE740F28840C2F200004079E0B1D0
:103E2000FFE744F6B050C2F2000090ED090A44F6F4
:103E3000A000C2F2000090ED051A30EE410A45F2F2
:103E4000A431C2F2000181ED060A40F28840C2F2BC
:103E50000000D0F80600C861FFE744F6B050C2F297
:103E60000000816844F6A002C2F20002D161406AFB
:103E7000906045F2A430C2F20000C169916181698D
:103E800051600021C2F84411C2F8AC10C2F8DC1134
:103E900090F86900C8B9FFE744F6A000C2F200003C
:103EA0000F9090ED010AD0ED020A20300EF076FA64
:103EB0000F9890ED180A44F6B051C2F20001D1ED0E
:103EC000040A6C300EF06AFA7FE045F2A430C2F2C8
:103ED000000090F86900012876D121E000004843F5
:103EE000000000000000C842000096430000FA43B2
:103EF0000050C346000016440000AF430080224437
:103F00000000FA44000048420080BB44AE477DC236
:103F1000000034430000B443000034C30000B4C3C5
:103F200044F64060C2F20000D0F8E00000EE900AD3
:103F30009FEDB70AFDF702FE8DED170A9DED170AFA
:103F4000B0EEC00A9FEDB31AB4EE410AF1EE10FADA
:103F50000FDDFFE744F64060C2F20000D0F8E00059
:103F600000EE900A9FEDAC0AFDF7E8FD8DED170A13
:103F7000FFE79DED170AF1EE400A44F6A000C2F2F9
:103F800000000E9000F5A8709FED9F0A0EF006FA53
:103F90000E9890ED640A44F64061C2F20001D1F837
:103FA000E81081F0004100EE901A00F5CE700EF09E
:103FB000F5F944F6B050C2F20000406A45F2A4316F
:103FC000C2F200018861FFE7FFE744F6A000C2F2F9
:103FD0000000079090ED060AD0ED070AB8300EF009
:103FE000DDF9079890ED3E0A44F6B051C2F20001A7
:103FF00091ED0F1A9FED892A21EE021AB1EE082ADF
:10400000C1EE020A00F582700EF0C8F944F6406075
:10401000C2F200000590D0F80C11D0F81C0100EE9F
:10402000101A00EE900A40F21C10C2F200000DF0CF
:10403000CDFC0598079945F2A432C2F200020D9218
:1040400092ED011A01F5A272089291ED512A21EE2A
:10405000021A30EE410A81ED510AD0F8E010D0F892
:10406000E80000EE101A00EE900A40F25830C2F25A
:10407000000006900DF0AAFC05990698079A0D9B82
:1040800093ED011A02F1AC03099392ED2B2A21EE74
:10409000021A30EE410A82ED2B0AD1F8E020D1F865
:1040A000E81000EE102A00EE901A0DF08FFC079930
:1040B00008980D9A92ED011A01F5EE720A9291EDAF
:1040C000772A21EE021A30EE410A81ED770A9FED40
:1040D0004F0A8DED0B0ADFED520ACDED0C0A0CF004
:1040E000EBFB09989DED0B0ADDED0C0A0CF0E4FBEF
:1040F0000A989DED0B0ADDED0C0A0CF0DDFB0D9826
:10410000007800285FD0FFE744F6B050C2F200000C
:104110000078002857D0FFE744F6A000C2F2000064
:1041200090ED510ABDEEC00A10EE102A6846002339
:104130004360036047F28C60C2F2000040F2FF115E
:104140000DF0DAFC45F2A430C2F2000090F86900EC
:10415000B8B9FFE744F6A000C2F2000090ED2B0AC8
:10416000BDEEC00A10EE103A6846002242600260BE
:1041700047F2F060C2F2000040F2FF110DF0BCFC0B
:1041800020E045F2A430C2F2000090F86900012856
:1041900017D1FFE744F6A000C2F2000090ED770AC5
:1041A000BDEEC00A10EE103A68460022426002607E
:1041B00047F2F060C2F2000040F2FF110DF09CFCEB
:1041C000FFE7FFE71BE068460023049343600360BA
:1041D00047F28C60C2F2000040F2FF1103911A46D0
:1041E0000DF08AFC0399049B68464360036047F224
:1041F000F060C2F200001A460DF07EFCFFE70120DD
:1042000016F0FEF963E500BF000000000050C34651
:10421000AE477D420000B442EC517343E02E65424C
:104220000050C3C680B5AEB02C902B9100208DF805
:10423000AB002B98006808B1FFE7FFE7FFE72C9879
:1042400090F85800012804D1FFE702208DF8B7004C
:104250005DE12C99012081F85800FFE7FFE700207D
:10426000259026902C980068B0F1A04F06D1FFE76A
:1042700040F20010C5F200000E9015E02C98006886
:1042800040F20041C5F20001884207D1FFE740F249
:104290000050C5F200000E900C9003E000200E903C
:1042A0000C90FFE70C98FFE70E9878B9FFE72C9980
:1042B000C86D40F02000C865FFE72C99002081F808
:1042C0005800FFE701208DF8B70020E10E980CF0B0
:1042D00013FA0D902C9800680CF00EFA002840F0AC
:1042E0000281FFE70D98002840F0FD80FFE72C9841
:1042F00001680120B1F1A04F0B900CD0FFE72C9882
:1043000000684FF60071CAF6FF710844B0FA80F0F9
:1043100040090B90FFE70B98C10740F20070C5F20F
:10432000000000291CBF40F20030C5F200002990B7
:104330002B980068002872D0FFE72998806820F445
:1043400060402B9949682C9A92F8382041EA423112
:104350000843299988602C9801680120B1F1A04F89
:104360000A900CD0FFE72C9800684FF60071CAF64F
:10437000FF710844B0FA80F040090A90FFE70A98FC
:10438000C10740F20070C5F2000000291CBF40F2D6
:104390000030C5F2000040F20031C5F20001884251
:1043A00010D1FFE74FF0A0400CF08EF9089040F2DA
:1043B0000010C5F200000CF087F901460898084388
:1043C00009901BE040F20040C5F200000CF07CF9BF
:1043D000069040F20050C5F200000CF075F901465D
:1043E00006980843079040F20060C5F200000CF008
:1043F0006BF90146079808430990FFE7099868B9E7
:10440000FFE72998806840F61F7188432B9A11684E
:1044100092681143084329998860FFE762E029996F
:10442000886820F4604088602C9801680120B1F110
:10443000A04F05900CD0FFE72C9800684FF6007154
:10444000CAF6FF710844B0FA80F040090590FFE712
:104450000598C10740F20070C5F2000000291CBF9A
:1044600040F20030C5F2000040F20031C5F2000118
:10447000884210D1FFE74FF0A0400CF025F90390DF
:1044800040F20010C5F200000CF01EF9014603983E
:10449000084304901BE040F20040C5F200000CF01D
:1044A00013F9019040F20050C5F200000CF00CF935
:1044B000014601980843029040F20060C5F20000F6
:1044C0000CF002F90146029808430490FFE70498B3
:1044D00038B9FFE72999886840F61F7290438860D1
:1044E000FFE7FFE708E02C99C86D40F02000C865A1
:1044F00001208DF8AB00FFE7FFE72C99002081F841
:104500005800FFE79DF8AB008DF8B700FFE79DF876
:10451000B7002EB080BD000080B5C4B024902391B8
:1045200000208DF88B001F902398C0680021C4F2F2
:104530007F01884201D0FFE700E0FFE7FFE7249812
:1045400090F85800012805D1FFE702208DF8970068
:1045500000F059BC2499012081F85800FFE7FFE7DB
:10456000249800680CF0C0F8002840F03884FFE779
:104570002498006823990A6849680CF0C5F82498C3
:1045800000680CF0B1F81E90249800680CF084F8D4
:104590001D901E98002840F0B881FFE71D98002864
:1045A00040F0B381FFE723988068B0F1004F0ED14F
:1045B000FFE7249800682399096800220CF0C2F8EC
:1045C000249800684FF000410CF068F90CE0249842
:1045D0000068239A116892680CF0B4F82498006877
:1045E00000210CF05BF9FFE72398406924990968E2
:1045F000C96801F018018908884021902398006952
:1046000004281CD0FFE72498006823990A680969E8
:10461000219B0CF0E9F824980068239A11699269AB
:104620000CF014F924980068239A1169127F013A5A
:10463000B2FA82F2520952060CF0F4F864E12498BE
:10464000006800210CF018F8400348B9FFE72498EF
:10465000006800210CF010F8C0F384601C9018E092
:104660002498006800210CF007F890FAA0F042901E
:10467000429820B9FFE720208DF80F0105E042980D
:10468000B0FA80F08DF80F01FFE79DF80F011C9044
:10469000FFE71C981B9023980068400330B9FFE7A0
:1046A00023980068C0F384601A9015E0239800688E
:1046B00090FAA0F04090409820B9FFE720208DF8B4
:1046C000070105E04098B0FA80F08DF80701FFE798
:1046D0009DF807011A90FFE71B981A99884207D1A5
:1046E000FFE724980068002211460CF0C3F8FFE7AA
:1046F0002498006801210BF0BFFF400348B9FFE791
:104700002498006801210BF0B7FFC0F38460199072
:1047100018E02498006801210BF0AEFF90FAA0F099
:104720003E903E9820B9FFE720208DF8FF0005E07D
:104730003E98B0FA80F08DF8FF00FFE79DF8FF008B
:104740001990FFE71998189023980068400330B932
:10475000FFE723980068C0F38460179015E0239862
:10476000006890FAA0F03C903C9820B9FFE7202028
:104770008DF8F70005E03C98B0FA80F08DF8F7006E
:10478000FFE79DF8F7001790FFE718981799884200
:1047900007D1FFE724980068012100220CF06AF895
:1047A000FFE72498006802210BF066FF400348B938
:1047B000FFE72498006802210BF05EFFC0F38460DD
:1047C000169018E02498006802210BF055FF90FA2B
:1047D000A0F03A903A9820B9FFE720208DF8EF003A
:1047E00005E03A98B0FA80F08DF8EF00FFE79DF809
:1047F000EF001690FFE71698159023980068400385
:1048000030B9FFE723980068C0F38460149015E086
:104810002398006890FAA0F03890389820B9FFE704
:1048200020208DF8E70005E03898B0FA80F08DF888
:10483000E700FFE79DF8E7001490FFE7159814994B
:10484000884207D1FFE724980068022100220CF07B
:1048500011F8FFE72498006803210BF00DFF4003D7
:1048600048B9FFE72498006803210BF005FFC0F367
:104870008460139018E02498006803210BF0FCFE7C
:1048800090FAA0F03690369820B9FFE720208DF8F6
:10489000DF0005E03698B0FA80F08DF8DF00FFE722
:1048A0009DF8DF001390FFE713981290239800689B
:1048B000400330B9FFE723980068C0F3846011908B
:1048C00015E02398006890FAA0F03490349820B94D
:1048D000FFE720208DF8D70005E03498B0FA80F08B
:1048E0008DF8D700FFE79DF8D7001190FFE71298E9
:1048F0001199884207D1FFE724980068032100221C
:104900000BF0B8FFFFE7FFE7FFE7249800680BF024
:10491000D3FE002840F04481FFE724980068239AE2
:104920001168D2680BF02AFF2398C0680021C4F2F6
:104930007F01884240F03381FFE72498006810909F
:1049400023980068400330B9FFE723980068C0F35C
:1049500084600F9015E02398006890FAA0F03290E0
:10496000329820B9FFE720208DF8CF0005E032987B
:10497000B0FA80F08DF8CF00FFE79DF8CF000F90E0
:10498000FFE70F98013000F01F0009287DD8FFE7EE
:1049900023980068400330B9FFE723980068C0F30C
:1049A00084600E9015E02398006890FAA0F0309093
:1049B000309820B9FFE720208DF8C70005E0309837
:1049C000B0FA80F08DF8C700FFE79DF8C7000E90A1
:1049D000FFE70E98013000F01F0080060D9023982D
:1049E0000068400330B9FFE723980068C0F3846093
:1049F0000C9015E02398006890FAA0F02E902E9865
:104A000020B9FFE720208DF8BF0005E02E98B0FA0E
:104A100080F08DF8BF00FFE79DF8BF000C90FFE726
:104A20000D980C99013101F01F02012191400843BA
:104A30000B9023980068400330B9FFE72398006883
:104A4000C0F384600A9015E02398006890FAA0F003
:104A50002C902C9820B9FFE720208DF8B70005E0B6
:104A60002C98B0FA80F08DF8B700FFE79DF8B700FA
:104A70000A90FFE70B980A99013101F01F0101EB41
:104A8000410140EA0150099082E023980068400308
:104A900030B9FFE723980068C0F38460089015E000
:104AA0002398006890FAA0F02A902A9820B9FFE78E
:104AB00020208DF8AF0005E02A98B0FA80F08DF83C
:104AC000AF00FFE79DF8AF000890FFE708980130BE
:104AD00000F01F008006079023980068400330B95B
:104AE000FFE723980068C0F38460069015E02398E0
:104AF000006890FAA0F02890289820B9FFE72020BD
:104B00008DF8A70005E02898B0FA80F08DF8A7008E
:104B1000FFE79DF8A7000690FFE707980699013187
:104B200001F01F020121914008430590239800687D
:104B3000400330B9FFE723980068C0F38460049015
:104B400015E02398006890FAA0F02690269820B9E6
:104B5000FFE720208DF89F0005E02698B0FA80F04E
:104B60008DF89F00FFE79DF89F000490FFE70599EF
:104B70000498013000F01F0000EB40020020CFF647
:104B8000206000EB0250084340F000700990FFE7FE
:104B900010980999239A92680BF0D4FDFFE7FFE77C
:104BA0002398408848F20801084200F01781FFE787
:104BB000249801680120B1F1A04F03900CD0FFE7C9
:104BC000249800684FF60071CAF6FF710844B0FAE5
:104BD00080F040090390FFE70398C10740F200709E
:104BE000C5F2000000291CBF40F20030C5F20000F1
:104BF0000BF03AFD20902398006840F20001CCF2BF
:104C00002131884208D0FFE7239800681021C9F2BB
:104C1000C00188425AD1FFE79DF8820000060028B3
:104C200054D4FFE724980068B0F1A04F09D0FFE703
:104C30002498006840F20061C5F20001884244D126
:104C4000FFE7249801680120B1F1A04F02900CD039
:104C5000FFE7249800684FF60071CAF6FF71084418
:104C6000B0FA80F040090290FFE70298C10740F2D5
:104C70000070C5F2000000291CBF40F20030C5F2F0
:104C80000000209941F400010BF0A0FD40F2FC105F
:104C9000C2F2000000684FEA901042F66351C0F281
:104CA0003E51A0FB01104FEA901000EB40014FF085
:104CB0000C0000EB81001F90FFE71F9820B1FFE779
:104CC0001F9801381F90F8E7FFE786E023980068F7
:104CD0000021CCF2527188423ED1FFE79DF883005B
:104CE000C007C8BBFFE72498006840F20011C5F276
:104CF0000001884209D1FFE72498006840F2005182
:104D0000C5F20001884226D0FFE7249801680120FF
:104D1000B1F1A04F01900CD0FFE7249800684FF646
:104D20000071CAF6FF710844B0FA80F040090190A2
:104D3000FFE70198C10740F20070C5F200000029AA
:104D40001CBF40F20030C5F20000209941F0807194
:104D50000BF03CFDFFE73FE0239800680021CCF614
:104D60008431884236D1FFE79DF882004006002852
:104D700030D4FFE72498006840F20011C5F200012A
:104D8000884226D0FFE7249801680120B1F1A04FA6
:104D900000900CD0FFE7249800684FF60071CAF627
:104DA000FF710844B0FA80F040090090FFE70098D6
:104DB000C10740F20070C5F2000000291CBF40F29C
:104DC0000030C5F20000209941F480010BF0FEFC98
:104DD000FFE700E0FFE7FFE7FFE7FFE708E02499D0
:104DE000C86D40F02000C86501208DF88B00FFE7FA
:104DF000FFE72499002081F85800FFE79DF88B0019
:104E00008DF89700FFE79DF8970044B080BD000043
:104E100080B58EB00C9000208DF82F0007900C9874
:104E200020B9FFE701208DF83700DCE10C984069DC
:104E300040B1FFE70C9890F82400012801D1FFE76A
:104E4000FFE7FFE70C98C06D50B9FFE70C9800F042
:104E5000CFF90C99002008660C9981F85800FFE7FB
:104E60000C9800680BF020FC28B1FFE70C98006854
:104E70000BF0DEFBFFE70C9800680BF02DFCF0B99F
:104E8000FFE70C9800680BF0DFFB40F2FC10C2F269
:104E900000000068800942F66351C0F23E51A0FB59
:104EA00001108109022000EB41000790FFE70798FD
:104EB00020B1FFE7079801380790F8E7FFE70C9863
:104EC00000680BF009FC70B9FFE70C99C86D40F061
:104ED0001000C8650C99086E40F0010008660120BA
:104EE0008DF82F00FFE70C9800680BF0FDFB099090
:104EF0000C98C06DC006002800F16781FFE7099893
:104F0000002840F06281FFE70C98C06D40F002007D
:104F100020F480700C99C8650C9800680BF0CCFBED
:104F200000287CD1FFE70C9801680120B1F1A04F67
:104F300006900CD0FFE70C9800684FF60071CAF697
:104F4000FF710844B0FA80F040090690FFE7069828
:104F5000C10740F20070C5F2000000291CBF40F2FA
:104F60000030C5F2000040F20031C5F20001884275
:104F700010D1FFE74FF0A0400BF09EFB049040F2F1
:104F80000010C5F200000BF097FB0146049808439F
:104F900005901BE040F20040C5F200000BF08CFBD6
:104FA000029040F20050C5F200000BF085FB014674
:104FB00002980843039040F20060C5F200000BF035
:104FC0007BFB0146039808430590FFE7059828BB43
:104FD000FFE70C9801680120B1F1A04F01900CD0BF
:104FE000FFE70C9800684FF60071CAF6FF7108449D
:104FF000B0FA80F040090190FFE70198C10740F244
:105000000070C5F2000000291CBF40F20030C5F25C
:1050100000000C9949680BF0CBFBFFE7FFE70C9908
:105020004A7FC86B40EA42308A68CB681843104315
:1050300091F8241040EA01400A900C9890F824005E
:1050400001280BD1FFE70C98816A0020CFF6FE7093
:1050500000EB41410A9808430A90FFE70C98C06AA8
:1050600050B1FFE70C99C86A096B00F478700143EE
:105070000A9808430A90FFE70C980068C06844F259
:105080000701CFF6F07108400A9908430C990968A6
:10509000C8600C980068006920F040600C9A1168A4
:1050A000526B104308610C9800680BF0F5FA0890F9
:1050B0000998002868D1FFE70898002864D1FFE725
:1050C0000C99087F91F83810800340EA41000A905B
:1050D0000C980068C06844F2020188430A990843AA
:1050E0000C990968C8600C980069A0B1FFE70C989A
:1050F0000168086940F4803008610C980068D0F8B5
:10510000C00043F6FF7188430C9A1168126910437E
:10511000C1F8C00011E00C980168086920F48030E3
:1051200008610C980068D0F8C00043F6FF7188430E
:105130000C990968C1F8C000FFE70C9890F840008E
:10514000012819D1FFE70C980068006940F2FD7151
:1051500020EA01020C9B1968586CD3F848E0D3F898
:105160004CC040EA0E0040EA0C001B6D184310438F
:1051700040F00100086106E00C980168086920F021
:1051800001000861FFE7FFE70C98406901280CD196
:10519000FFE70C980068006B20F00F000C9A116874
:1051A000126A013A1043086306E00C980168086B24
:1051B00020F00F000863FFE70C98C06D40F001007D
:1051C00020F002000C99C86508E00C99C86D40F009
:1051D0001000C86501208DF82F00FFE79DF82F0013
:1051E0008DF83700FFE79DF837000EB080BD000056
:1051F00080B59EB01D9000201C901B901A901990B5
:10520000189003A85421FBF74DF81D98006840F250
:105210000041C5F2000188423AD1FFE74FF48030E7
:1052200003904FF00040159003A804F04BF918B11B
:10523000FFE7FDF705FEFFE7FFE741F24C00C4F290
:105240000200016841F480410160006800F4804080
:1052500002900298FFE7FFE741F24C00C4F202001F
:10526000016841F010010160006800F01000019039
:105270000198FFE7802018900320199000201A90D1
:1052800041F20000C4F6000018A902F05FF8FFE741
:105290001EB080BD87B006900591049200208DF865
:1052A0000F001F2002909DF81400C00720B9FFE7EF
:1052B00001208DF80F004BE0FFE70299481E029095
:1052C0000020019051B1FFE70598029901F01F01FC
:1052D00020FA01F1012088430190FFE70198C007FF
:1052E00008B1FFE7E9E70498009018282BD8009947
:1052F000DFE801F028292929292929291F29292915
:105300002929292916292929292929290D0002981D
:10531000072804D3FFE701208DF80F00FFE716E010
:105320000298082804D3FFE701208DF80F00FFE75B
:105330000DE00298102804D3FFE701208DF80F003C
:10534000FFE704E003E001208DF80F00FFE7FFE72F
:105350009DF80F0078B9FFE705980699096848613C
:1053600006980068806820F01800049908430699A0
:1053700009688860FFE79DF80F0007B070470000DC
:1053800080B582B00090009820B9FFE701208DF829
:10539000070057E00098407F38B9FFE700990020E8
:1053A0000877009800F052F8FFE70099022048774C
:1053B0000098007980B9FFE70098016841F6B7507E
:1053C000C0F2C140486100980068806820F0180071
:1053D0000099096888600BE000988168C268FFF74F
:1053E00059FF20B1FFE701208DF807002AE0FFE711
:1053F0000098407930B9FFE7009801684FF0FF301E
:10540000086104E00098016800690861FFE70098FE
:105410000068806820F06000009A116852691043AB
:10542000886000980068806820F08000009A116809
:1054300092691043886000990120487700208DF818
:105440000700FFE79DF8070002B080BD82B0019021
:105450000198006843F20001C4F20201884210D1B1
:10546000FFE7FFE741F24800C4F20200016841F49F
:1054700080510160006800F4805000900098FFE7C0
:10548000FFE702B07047000080B58AB0089007912E
:10549000069200208DF81700089818B1FFE70798CA
:1054A00020B9FFE701208DF82700B5E10798C06912
:1054B000012801D1FFE7FFE707988068042801D1A0
:1054C000FFE706E007984069022801D1FFE7FFE700
:1054D000FFE7FFE708984079012804D1FFE70220A1
:1054E0008DF8270098E1089901204871FFE7FFE750
:1054F00008990220087107988068042878D1FFE78E
:1055000002F006F90290069848BBFFE7FFE708980B
:105510000068406B000400281BD5FFE702F0F8F894
:105520000299401A022813D3FFE708980068406BDD
:10553000000400280BD5FFE70899086940F008002F
:1055400008610899032008718DF8270064E1FFE7DE
:10555000DDE70798406A08990968086426E0FFE7D4
:1055600008980068406BC00FD0B1FFE702F0D0F898
:105570000299401A022812D3FFE708980068406B8E
:10558000C00F58B1FFE70899086940F008000861AA
:105590000899032008718DF827003DE1FFE7DFE758
:1055A0000798406A089909684864FFE70898006806
:1055B000806C069901F0100240F2FF31914088435F
:1055C0000799896A9140084308990968886408988E
:1055D0000068C06C069901F01002FF2191408843D9
:1055E0000799C96A9140084308990968C864FFE7A8
:1055F0000798C06901281ED1FFE708980068806BF2
:105600000490069800F010011F2000FA01F10498A0
:10561000884304900798006A03900398069901F064
:10562000100100FA01F104980843049004980899C5
:1056300009688863FFE708980068C06B04900698C3
:1056400000F01001072000FA01F10498884304904B
:1056500007988069012803D1FFE70020009013E03C
:1056600007988069022803D1FFE7012000900AE033
:105670000798406918B9FFE70120009002E0002078
:105680000090FFE7FFE7FFE707998868496908434B
:10569000009908430390069800F010014FF48070C1
:1056A00000FA01F10498884304900798027903985E
:1056B00040F48071012A08BF08460390069800F064
:1056C00010014FF4007000FA01F10498884304902F
:1056D00007984279039840F40071012A08BF0846F0
:1056E0000390049820F44040049007980068022832
:1056F00020D1FFE704F036FB0190019846F6010146
:10570000C0F68911884205D3FFE7049840F40040B1
:1057100004900EE001984BF20141C0F2C44188426E
:1057200005D3FFE7049840F48040049000E0FFE7D1
:10573000FFE705E007980168049808430490FFE735
:105740000398069901F0100100FA01F1049808434A
:105750000490049808990968C863069800F010013D
:105760004FF4804000FA01F20898016808689043FD
:1057700008600898006800680490069800F010011E
:1057800040F6FE7000FA01F10498884304900798EF
:10579000C06803900398069901F0100100FA01F126
:1057A00004980843049004980899096808600698CA
:1057B00000F01001C02000FA01F2089801680868A2
:1057C000904308600798C068C0F38300039007986F
:1057D000006900F03C01039840EA811003900898AA
:1057E0000068006E069901F0100240F60F719140BA
:1057F0008843039991400843089909680866089905
:1058000001200871FFE7089900204871FFE79DF823
:1058100017008DF82700FFE79DF827000AB080BD2C
:1058200080B582B00090009820B9FFE701208DF884
:10583000070016E00098007938B9FFE700990020CA
:105840004871009800F012F8FFE7009902200871F3
:10585000009900200861009A012111718DF807005C
:10586000FFE79DF8070002B080BD000082B0019004
:105870000198006841F20001C5F20001884210D190
:10588000FFE7FFE741F24C00C4F20200016841F477
:1058900080210160006800F4802000900098FFE7FC
:1058A000FFE702B07047000083B0019000910198BB
:1058B00090F82500012836D1FFE7FFE7019890F81E
:1058C0002400012804D1FFE702208DF80B002EE010
:1058D0000199012081F82400FFE7FFE70198806C1F
:1058E0000068C0B2009AD3680021CFF6F87101EBCE
:1058F000C341D2F800C0536841EA0C611943137ADE
:1059000041EA0341527A41EA422108430199896CF4
:105910000860FFE70199002081F82400FFE70020DC
:105920008DF80B0003E001208DF80B00FFE79DF8D8
:105930000B0003B07047000080B582B00190019861
:10594000C06C00680199096D084218D0FFE7019802
:10595000816C086820F4807008600198C16C006D4B
:1059600048600199C86B40F40070C8630198406BAF
:1059700020B1FFE70198416B8847FFE7FFE70198F7
:10598000406D08B3FFE70198806D00680199C96D0B
:10599000084218D0FFE70198416D086820F4807034
:1059A00008600198816DC06D48600199C86B40F432
:1059B0008060C8630198406B20B1FFE70198416B9C
:1059C0008847FFE7FFE7FFE702B080BD82B00190A4
:1059D00000208DF80300019890F82500022807D0D8
:1059E000FFE701990420C86301208DF803002DE032
:1059F00001980168086820F00E0008600198816C29
:105A0000086820F48070086001980168086820F038
:105A1000010008600198016C406C00F01F02012039
:105A2000904048600198C16C006D48600198406DDD
:105A300058B1FFE70198416D086820F48070086054
:105A40000198816DC06D4860FFE7FFE70199012073
:105A500081F82500FFE70199002081F82400FFE785
:105A60009DF8030002B0704780B582B0019000201D
:105A70008DF80300019890F82500022811D0FFE767
:105A800001990420C8630199012081F82500FFE7EE
:105A90000199002081F82400FFE701208DF8030020
:105AA0003FE001980168086820F00E000860019846
:105AB0000168086820F0010008600198816C08689E
:105AC00020F4807008600198016C406C00F01F02A7
:105AD0000120904048600198C16C006D48600198B9
